:020000040001F9
:10B00000C0220020D5B00100EFB00100F1B0010076
:10B010000000000000000000000000000000000030
:10B02000000000000000000000000000F3B001007C
:10B030000000000000000000F5B00100F7B00100C2
:10B040001DB30100F9B0010025B40100F9B0010001
:10B05000F9B0010000000000A5B10100F9B0010045
:10B06000F9B00100F9B00100F9B00100F9B0010038
:10B07000F9B00100F9B00100F9B00100F9B0010028
:10B08000F9B0010071B30100F9B00100F9B001009D
:10B0900091B30100F9B0010099B30100F9B00100CA
:10B0A000F9B00100F9B0010000000000000000004C
:10B0B0000000000000000000000000000000000090
:10B0C0000348854600F05CF80048004705C40100CD
:10B0D000C02200200321094802680A430260084890
:10B0E00002680A4302600748804707480047FEE7B6
:10B0F000FEE7FEE7FEE7FEE7FEE70000240500406E
:10B1000054050040B9B30100C1B0010030B50B4691
:10B11000014600202022012409E00D46D5409D4231
:10B1200005D31D469540491B2546954040191546B7
:10B13000521E002DF1DC30BD03460B439B0703D0AC
:10B1400009E008C9121F08C0042AFAD203E00B78EC
:10B150000370401C491C521EF9D27047D2B201E064
:10B160000270401C491EFBD270470022F6E710B562
:10B1700013460A4604461946FFF7F0FF204610BD65
:10B18000064C0125064E05E0E36807CC2B430C3C3A
:10B1900098471034B442F7D3FFF796FF34D101003B
:10B1A00054D10100F0B50024FF268BB001360125F3
:10B1B00027460694304601F043FC002807D0544847
:10B1C0004068284203D0304601F032FC2C43361D43
:10B1D0006D007F1CB6B2042FECD3FF257D352846C9
:10B1E00001F02EFC002809D0284601F021FC680758
:10B1F000044306AA0121002001F006FC454D20076A
:10B2000014D00127002627420CD04348B200111861
:10B2100008690969C004C00E8903AA58890F002A69
:10B2200000D090477F00761C042EECD3002C6DDA02
:10B2300000200890401E63E0281940300778B906C6
:10B24000890E009100214156491C49D009A9009856
:10B2500001F014FA002843D0B8090190009800F0DA
:10B2600099FE80002F580198002F02D0032802D0A9
:10B270000DE0032834D1009808ABC208410794467A
:10B28000985C490F01228A40104362469854009806
:10B2900005210907800040180721090240180068AD
:10B2A00006A98003800F0290009801F0E7F90028BA
:10B2B000029802D0022802D012E0032810D101988F
:10B2C000032808D1029802281ED00221009801F01C
:10B2D0007DFB761CF6B2002F02D001990098B8478A
:10B2E000641C042CA8D3002E10D06A460121002033
:10B2F00001F08AFB06990098884207D006900898CA
:10B3000000263446099097E70321DFE70BB0F0BD34
:10B3100000630040381A002000650040F8B5FF20A7
:10B32000013001F0B3F9002401250E4E0E4F002824
:10B3300007D00E4804600120B0607D70002000F04E
:10B3400031FEFF20053001F0A1F9002808D00748A0
:10B35000001D04600220B060BD70012000F022FEDC
:10B36000F8BD000000030040241A00200001004046
:10B3700010B506490020086048608860C86003492D
:10B3800040390860486001F039FD10BD40110140AE
:10B3900010B501F0ABFC10BD10B5064840680028A0
:10B3A00005D08047002801D000F07CFA10BD00F0E5
:10B3B00017FF10BDC818002010B501F019F90028BA
:10B3C00005D011490F484860C8131049886101F041
:10B3D00025F9002802D00E490120886001F034F9D7
:10B3E00000280AD00B480168012904D00A490160ED
:10B3F00001680129FCD1C021416109490748086061
:10B4000010BD0000DFFF07C000050040006C0040D9
:10B410000006004000EC0640759300000024F40094
:10B42000DC18002010B50249024801F042FD10BDB1
:10B43000801A00200020004030B47446641E257835
:10B44000641CAB4200D21D46635D5B00E31830BC58
:10B4500018470000002805DBC106C90E01208840FE
:10B46000014908607047000080E200E0002809DB25
:10B47000C106C90E0120884003490860BFF34F8F01
:10B48000BFF36F8F7047000080E100E0002805DB0C
:10B49000C106C90E012088400149086070470000BC
:10B4A00000E100E0002805DBC106C90E012088404C
:10B4B000014908607047000000E100E0002805DB5A
:10B4C000C106C90E0120884001490860704700008C
:10B4D00000E200E08307FF22DB0E9A408907090E95
:10B4E0009940002808DB830809489B001B1818684E
:10B4F00090430843186070470007000F083883081E
:10B5000004489B001B18D86990430843D8617047D2
:10B5100000E400E000ED00E002E008C8121F08C1EE
:10B52000002AFAD170477047002001E001C1121FC4
:10B53000002AFBD170470000202804DA0121814055
:10B540000348014201D001207047002070470000ED
:10B55000FC06FFBCF7B584B00646002517881580A9
:10B5600020300290407B1446002806D03A462146FF
:10B57000059800F0B3FA050009D1B078002823D06F
:10B58000059886462088001DB84202D90C2007B0D5
:10B59000F0BD684679DF0028F9D121880320724682
:10B5A000505420881921401C80B2208011542088DA
:10B5B0007146401C80B2208041186846008801F026
:10B5C0000CFD218840182080F078002817D02188B1
:10B5D00003230A46F356C91C0598B942D6D802215E
:10B5E000815421880122491C89B22180425421883A
:10B5F000491C89B2218043542088401C20807068F7
:10B60000002817D021880023C3560A46C91C059874
:10B61000B942BBD80221815421880A22491C89B22F
:10B62000218042542188491C89B2218043542088BA
:10B63000401C2080308900280AD0009430460197B1
:10B64000062202210830059B01F0E2FC05009ED194
:10B65000308A00280AD0009430460197072203213F
:10B660001030059B01F0D4FC050090D1308B0028F0
:10B670000AD0009430460197152214211830059BFA
:10B6800001F0C6FC050082D1306A002806D03B4696
:10B690002246059900F0E8FC0500D8D1706A002820
:10B6A00006D03B462246059900F01EFF0500CED18C
:10B6B0000298007B002807D03B4622463046059979
:10B6C00001F074FA0500C2D13078002807D03B465B
:10B6D00022463046059900F03BFF0500B7D12846C9
:10B6E00055E7000010B594B0FF21684601800120A5
:10B6F00001461031684601730424052213A103A8F2
:10B700007CDF144802900121684681803C2104A816
:10B71000FFF72BFD022168460174C4740D900021CF
:10B7200004A800F0A7F9002801D000F0BBF8182108
:10B730000948FFF71AFD0848032101700021416004
:10B740000172A0220282418214B010BD48616F5480
:10B750007200000071180020A019002010B51F48C9
:10B7600092B00178401C0170FF2269460A80029065
:10B770000120888004243C2103A8FFF7F6FC022066
:10B7800069460873CC730C91002103A800F072F98C
:10B79000002801D000F086F818211148FFF7E5FCD9
:10B7A0000F4803210170002141600172A022028232
:10B7B000418274DF002801D000F074F8022000F00C
:10B7C00097FA002801D000F06DF8054873DF0028D3
:10B7D00001D000F067F812B010BD00007018002012
:10B7E000A019002010B5022000F0A8F910BD00003B
:10B7F00070B50024064D06E06968E000085C012190
:10B8000000F0DCFF641C28788442F5D3002070BD72
:10B8100088180020F8B515460C460646052A01D2C0
:10B820000720F8BD01F0A2F8002803D101F070F85C
:10B830000028F6D1104900204E600C70C8608D6061
:10B8400008610E4D0DE0E000696880190091817873
:10B850006A46517000780A4A694600F0FBFF0028EA
:10B86000DFD12046641EE4B20028ECD1054A002155
:10B87000024800F023F8F8BD881800202CD1010000
:10B8800091C10100F1C00100BFF34F8F044903488B
:10B89000C860BFF34F8F00BFFDE700000400FA054A
:10B8A00000ED00E00EB50021029000916A46019182
:10B8B0000148FFF7E9FF0EBD014000000A4B5B683D
:10B8C000002B07D0002A07D0002805D00068037C91
:10B8D000002B03D008207047072070470023037413
:10B8E0004174426118467047AC180020FFB5074606
:10B8F0009007002581B01E461446002825D1002C53
:10B9000023D001F0CDF83046114EF06030461030B3
:10B91000057045700299817044607560357075706E
:10B920001420FFF797FD03211420FFF7D3FD142007
:10B93000FFF7ACFD074CA76003211120FFF7CAFDFC
:10B940006068B060002005B0F0BD0720FBE7000094
:10B950009C18002000150140FEB5204B5B68002BB1
:10B9600031D000282FD0052901D20720FEBD436920
:10B97000002B28D0437C012B27D0002702910446BE
:10B980000025694616460D70684600F03FF801A88C
:10B9900001F028FB00281AD00121017010494460F1
:10B9A00049688160029907614661C16068460B4938
:10B9B000007948706846007800F046F81420FFF7D8
:10B9C0007DFD2846FEBD0820FEBD0F46D6E7684631
:10B9D0000425007800F038F8F3E70000AC180020E8
:10B9E0000015014010B50849496800290AD000280F
:10B9F00008D04169002905D000210174022101F01D
:10BA0000D7F910BD082010BDAC18002030B5EFF3F9
:10BA1000108172B6094A54680123002C04D00370C7
:10BA2000002900D162B630BD5360054B1D68054C3E
:10BA3000254015601C6000220270F1E7C01800204C
:10BA400080E100E0FC06FFBC08494A68002A0CD0EF
:10BA500000280AD1EFF3108072B60A68044B1A600E
:10BA600000224A60002800D162B67047C01800204A
:10BA700000E100E0F0B50C4693B01F216A4611804A
:10BA8000072600279180002809D0C17849070DD5E5
:10BA900002A9FFF75FFD002809D102AD01E00025F2
:10BAA0001780002C0ED0E078002802D0304613B06A
:10BAB000F0BD01AA0AA92046FFF74CFD0028F6D1E7
:10BAC0000AAA02E068460022878068468088C3B2DE
:10BAD00068460088C1B2284672DFE8E77CB50546B3
:10BAE00008880C460930904201D90C207CBD68467C
:10BAF00071DF0028FAD121880820685420881B2192
:10BB0000401C80B220802954208800A9401C80B2AB
:10BB10002080401906220131FFF70EFB208869467C
:10BB2000801D80B220800978002900D0012129548D
:10BB30002088401C208000207CBD000005490B5C53
:10BB400005494A6801209840034693438B601040A2
:10BB5000C8607047F4D001000005005010B50349DB
:10BB6000085C012100F044FF10BD0000F4D001008A
:10BB700010B50349085C002100F03AFF10BD000039
:10BB8000F4D001000549095C05484068C840C00779
:10BB9000C00F00D00120012148407047F4D00100BF
:10BBA000000500507CB50024074E2546305D01227B
:10BBB000009500231146019500F0E0FE641C042C62
:10BBC000F4D300F003F87CBDF4D0010010B50024DC
:10BBD0002046FFF7C3FF641C042CF9D310BD10B539
:10BBE00000242046FFF7C4FF641C042CF9D310BDC9
:10BBF0000246002010B5C043054B00215C5C944216
:10BC000001D1084610BD491C0429F7D310BD00001E
:10BC1000F8D00100F3B581B00D460198FFF7E8FFB9
:10BC20000446042813D21D481D4F1E4E002D27D058
:10BC3000012D0DD0022D0AD160002018C0194578C1
:10BC4000002D04D0F168002901D028468847FEBDA8
:10BC5000610061187D5CCF19797800290BD071687B
:10BC60000A2251430F4A8068921CFFF775FE002894
:10BC700001D10198B0700B48B97810300155DFE759
:10BC80008068FFF7AFFE0748610061181030C919DE
:10BC9000005D8D78A842D3D0FEBD0000FCD001002D
:10BCA000F81900207418002070B50023042811D260
:10BCB000440004190D4D012A02D101290DD00022A2
:10BCC00046008019094E801900290CD0012906D0A0
:10BCD000022906D00723184670BD0E30C2B22A557D
:10BCE000F9E74270F7E78270F5E70000F8190020E5
:10BCF00010B5054A0146127A0020D20702D0084644
:10BD000000F050F810BD000074180020F8B5064689
:10BD10001F4800248660C26041600F46B00720D5EE
:10BD20000025012211462846FFF7BEFF6D1C044680
:10BD3000042D02D2002CF4D013E0002C11D17A088B
:10BD400004211448FFF766FD04000AD1FFF750FDF7
:10BD5000040006D10F48104A0021001FFFF7AEFD76
:10BD60000446F00701D0FFF71DFF002C0ED1094853
:10BD70000A4A00210C38FFF7A1FD040006D105484E
:10BD8000074A01210838FFF799FD04462046F8BD0F
:10BD90007418002008D1010025BF010085C20100F0
:10BDA000E5B70100F8B55D4C05466078002600282F
:10BDB00003D000206070FFF709FF0120584F2B00CF
:10BDC000FFF73AFB18970D0D2E3D4A5F64686F68C8
:10BDD0006FA97777777777979A9DA0A9A995002083
:10BDE000FFF7D0FE00280AD00020FFF7B7FE022D93
:10BDF00002D1E120C0000BE07D20400108E00020DE
:10BE0000FFF7B6FE022D01D1C82001E0FF209130DE
:10BE100025706421FFF77AF96168414300222BE025
:10BE20000020FFF7AFFE002805D00020FFF796FEA8
:10BE300019204001ECE70020FFF79AFEE4E700201C
:10BE4000FFF7A0FE002803D00020FFF787FED3E70E
:10BE50000020FFF78DFED9E70020FFF793FE0028B2
:10BE600003D00020FFF77AFE02E00020FFF780FEFB
:10BE700025706068410000223868FFF76DFD0646B6
:10BE800035E00020FFF75AFE257007E000203FE074
:10BE900025702CE060700120FFF750FE00226168E1
:10BEA000EAE760700120FFF749FE606881004118F1
:10BEB000E1E77868FFF796FD06461120401B01D0A8
:10BEC000002E03D00220FFF749FE10E001280BD915
:10BED000C82148436421FFF719F9616800224143F2
:10BEE0007868FFF739FD06460220FFF741FE30462D
:10BEF000F8BDFFF76BFECBE7FFF768FEC6E7FFF77D
:10BF000065FE04E0FFF762FE0020FFF731FE01202E
:10BF1000FFF72EFEBCE7FFF762FEB9E774180020BA
:10BF2000FCD0010010B500780221FFF773FE10BDB0
:10BF30000022D243830004490428CA5002D30818BF
:10BF40002030027770470000381A0020F0B5002535
:10BF5000ED43002A02D00023042601E00423082632
:10BF60000B4C04E09F00E7597F1C04D05B1CB342DC
:10BF7000F8D32846F0BD26185DB2203635709E00F5
:10BF8000A151002AF5D1E11820310877F1E700002E
:10BF9000381A00200249091820200856704700006E
:10BFA000381A002070B5084C050009D010342168FB
:10BFB000002907D008682060496828468847F6E7C6
:10BFC0000834F4E770BD0000241A0020F8B52248B8
:10BFD000416800293DD00E6820494C688768807808
:10BFE000E11B0D022D0AED1C002815D101201C4972
:10BFF000000448601A49403948601120FFF72AFAC6
:10C000001120FFF743FA1749012008602F2000F0A4
:10C0100045FB114901208870B54200D23546E81928
:10C0200000020E4B000A403318600C4A5168001B96
:10C03000091B0902090A0002000AC91C814207D92A
:10C04000506818602F2000F029FB1120FFF736FA06
:10C05000F8BD00F025FDF8BD9C180020001501403A
:10C060004013014000100140F8B506461088144600
:10C070008446801D0D46984201D90C20F8BD3288B7
:10C080000720062AFAD31927FF01184BBA4201D913
:10C090009A42F3D171880629F0D3B94201D9994265
:10C0A000ECD19A4203D0994201D08A42E6D80521C8
:10C0B0006046295420881221401C80B220802954D7
:10C0C0002088401C80B220804119308800F085FF14
:10C0D0002188401880B220804119708800F07DFFCF
:10C0E0002188401820800020F8BD0000FFFF0000DC
:10C0F000F8B500260124154D23E06968F0004718C3
:10C10000387821462A698140114218D08A432A6131
:10C1100000F0F4FB3A782146EB6891401940034661
:10C12000934099420BD17978012901D0012100E097
:10C1300000217B684140002B01D010469847761CB7
:10C14000F6B228788642D8D3F8BD000088180020BF
:10C1500010B50E4900230A784C78A24212D0521C26
:10C16000D2B20A70022A00D10B700A78074B9200F3
:10C1700018339A580260886810180002000A886014
:10C18000012010BD0360002010BD00009C1800209D
:10C19000F8B50746104E0125BD403068FFF722FC78
:10C1A00000280DD10D4C2069284207D1384600F0F7
:10C1B000A5FB0028E06804D0284303E0A8432061E1
:10C1C000F8BDA843E0602069002228432061A168EF
:10C1D0003068FFF7C1FBF8BD2CD1010088180020A2
:10C1E000F8B51E4C2078002836D0E06800260028DC
:10C1F0000CD00025607800282ED1684652DF052833
:10C2000006D0002806D0FFF74DFB0BE00125F1E733
:10C21000012607E0009800F097FA2169002901D073
:10C2200000988847002D13D16078002814D16088C9
:10C2300069460880A06861DF052804D0002804D082
:10C24000FFF730FB04E0012502E0E168A0688847C1
:10C25000002ECFD0002DE5D0F8BD0000C81800207A
:10C2600001490320086070471C070050044A5368C6
:10C27000012181400846984390601940D160704781
:10C280000005005010B50448017AC90702D00078B3
:10C29000FFF788FD10BD000074180020F0B5284C91
:10C2A0002146103948688B68227886469C46CF78AC
:10C2B000667836E0182353436168521CC918A37886
:10C2C000D2B2934200D100220B78022B02D0032B72
:10C2D00027D123E003464D68194603E0A94204D064
:10C2E0000B46C96900291CD0F8E7002919D08B42F8
:10C2F00008D1C069002805D1124F0125BD60002575
:10C30000AC4601270D68C969D961002909D00B68BD
:10C310005B190B6005E00174C06900E00021002892
:10C32000F9D19642C6D10649624610398A60486002
:10C33000CF70704501D00120F0BD0020F0BD00009D
:10C34000AC18002000100140F8B52C4E044670686F
:10C350000025009041E0002C02D02046E46920E056
:10C36000264818231030017842684B43491CC9B253
:10C37000D21801708378994200D105701178506805
:10C3800001292CD1017C002929D191684160D16813
:10C3900081601169C16051698161F178002900D023
:10C3A00045604368B268164F991A0902090AB942F2
:10C3B00002D28268891806E0D11A09028268090A45
:10C3C0008A4202D9511A016000E0056045600121EE
:10C3D00085600174C56100F0CBFC002CBBD107481F
:10C3E0001030017840788142BAD17168009881425A
:10C3F00001D00120F8BD0020F8BD00009C180020ED
:10C40000FFFF7F0086B0FFF72BFF0023304A052196
:10C410001846FFF76BFA002801D0FFF743FA002215
:10C420002C490120FFF772FC002801D0FFF73AFAEF
:10C43000294827490068059000234822483905A863
:10C4400000F01EFC002801D0FFF72CFA00216A46FC
:10C45000084600F0FDFB002801D0FFF723FA6846EC
:10C4600000F0ECFB002801D0FFF71CFAFFF73AF9C7
:10C470001748783073DF002801D0FFF713FA022045
:10C48000FFF736FC002801D0FFF70CFA144C134DCF
:10C49000144EE7000720FFF7E9FE2878401C2870BB
:10C4A000FFF75CF93168204600BF00BF00BF00BF46
:10C4B00000BF00BF00BF00BFB94200D000BF0138BD
:10C4C000F2D148DF0028E5D0FFF7ECF9E2E7000001
:10C4D00028190020CD0C0000F0D0010070180020B9
:10C4E00080841E00DC18002070B5144682880E4639
:10C4F00005462088111D4118921C994201D8FE2A38
:10C5000001D90C2070BD521C32542088FF21401CE0
:10C5100080B2208031542088401C80B22080811954
:10C52000288800F05AFD2188401880B22080AA880F
:10C53000002A09D0A968002908D08019FEF7FCFD5F
:10C540002088A98840182080002070BD072070BD79
:10C55000F8B50F46017814460546012902D16878DE
:10C56000002806D02088821C9A422DD8012902D0AA
:10C5700006E00720F8BD69784118891C994223D844
:10C58000181A801E86B2684606802188B81C0818D2
:10C5900069467DDF0028EDD12878022805D169465B
:10C5A0000988B14201D809210AE00821012805D1F2
:10C5B0006878B04202D86A46108001E0684606807A
:10C5C00068460088FE2801D90C20F8BD2288401C4E
:10C5D000B8542088401C80B2208039542088694695
:10C5E000401C20800988401820800020F8BD0000F1
:10C5F00000B50948018C008DC9B20006000F012961
:10C6000007D10300FEF718FF04030305030501200B
:10C6100000BD002000BD0000C00F00F000B50948BB
:10C62000018C008DC9B20006000F012908D103005A
:10C63000FEF702FF0506060406040600012000BD01
:10C64000002000BDC00F00F000B50B48018C008D2C
:10C65000C9B20006000F01290CD10300FEF7ECFE61
:10C660000D0A0A0A0A0A08080A0A0A080A0A080039
:10C67000012000BD002000BDC00F00F0C20843072C
:10C680005B0F0120895C98400840704701218907B1
:10C6900040180068002800D00120704700280FD003
:10C6A0000849094A096800BF00BF00BF00BF00BFBA
:10C6B00000BF00BF00BF914200D000BF0138F2D1DF
:10C6C00070470000DC1800200024F40070B50E4C08
:10C6D00000252078002801D0852513E00021A160E5
:10C6E00061602161E160094800680126304002D1A3
:10C6F000032100F02FF800F0F3FA002801D10448DC
:10C7000086612670284670BD241A002000E100E0F2
:10C710000005004038B50020694608706846FFF7FC
:10C7200075F9084C2078002801D1FFF7CFFFE068A9
:10C73000401CE0600120A07068460078FFF784F993
:10C7400038BD0000241A002010B5002801D1FFF7E1
:10C7500029FC10BD8207D30EFF229A408907090EDB
:10C7600010B59940002808DB8408104BA400E41899
:10C77000236893430B4323600AE003071B0F083B26
:10C780009C080B4BA400E318DC6994430C43DC6168
:10C79000C206D20E01219140002801DB054A11603A
:10C7A000002801DB0448016010BD000000E400E047
:10C7B00000ED00E080E200E000E100E0F3B581B0D0
:10C7C000054600F055F91F4F0028284617D0FFF7FF
:10C7D000E1FBC0192030007F8009032802D0012826
:10C7E0000BD005E018480069E840C007C00F04D02E
:10C7F0000321284600F0EAF8FEBD0221F9E700F027
:10C8000043F90028F8D02846FFF7C4FB044680000F
:10C81000C11D0E4AF9318018026989B201263243DE
:10C820000261084600F004F902980028E4D0284686
:10C83000FFF7B0FB800038580028DDD00448A64040
:10C840004660FEBD381A002000050050006500401B
:10C8500000630040FEB5044625480E46001920211D
:10C8600041560027C8171346401C01D008273CE05A
:10C87000F27819462046FFF769FB0546401C33D085
:10C88000B07800280BD005200007A1000918072068
:10C8900000020918086802229043086007E000219E
:10C8A0007378204600910A46019100F07BF8F078F9
:10C8B000002810D00F48AA001018317802690E4BDA
:10C8C0001A400261E206D20C8907890B0A4301690A
:10C8D0000A43026109E00648327840192030017F9E
:10C8E00092011143017700E004273846FEBD0000A5
:10C8F000381A002000650040FFE0FCFF0349096989
:10C90000C140C807C00F00D001207047000500508B
:10C9100070B5144D2879002801D0082070BD114948
:10C9200000204039421E0B182033401CC0B21A7040
:10C930002028F8D300242046FFF7FAFA641CE4B25A
:10C94000082CF8D303210620FFF704FFFF207D30D9
:10C9500000F06EF801200449C007486001202871EA
:10C96000002070BD781A0020006300400248007962
:10C97000002800D001207047781A002070B55200BE
:10C980000A439900049D0A432902059E0A43310483
:10C9900005240A43240780000721001909024018D2
:10C9A000026070BD70B552000A439900049D0A43AD
:10C9B0002902059E0A43310405240A432407800006
:10C9C0000721001909024018026070BD05221207F4
:10C9D00080008218072000021018026803231B043D
:10C9E0009A430260026809040A430260704700002B
:10C9F000012282400348002901D082607047C26052
:10CA0000704700000005005038B5084B05241B682E
:10CA1000009324026B46411805E085005D592D19ED
:10CA20002D69401C20C28142F7D838BD28D10100B1
:10CA3000024940180021016070470000006000407A
:10CA4000034940180068012800D00020704700000A
:10CA5000006000404058002800D0012070470322A9
:10CA6000120280184068084000D001207047000082
:10CA70000449081820214156042901DB0120704790
:10CA800000207047381A0020044908182021415618
:10CA9000042901D20120704700207047381A002075
:10CAA00070B501240D4960040860BFF34F8FBFF3D8
:10CAB0006F8F0B4940108860094940398860094DE3
:10CAC0006C602F20FFF7EAFDAC60074D00242F209B
:10CAD000AC60FFF7E3FDAC7070BD000080E100E0EA
:10CAE00040130140001001409C18002030B5FF2287
:10CAF0000523CD7D002409321B02C318002D84506C
:10CB0000986905D04B7ECA68D054487E401C487650
:10CB100030BD1FB501246B461C701972019206C806
:10CB2000684690471FBD000010B50446FEF704FD9F
:10CB3000002809D0A007C00E002C07DBA108174A67
:10CB400089008918096809E0154810BD2107090FF7
:10CB500008398908134A89008918C969C14008063B
:10CB6000800F042811D200280FD002280DD00E48C3
:10CB700001214268002A0BD0620992008358E40622
:10CB8000E40EA1400B43835005E00548401C10BD56
:10CB90002046FEF787FC002010BD000000E400E006
:10CBA0000120000000ED00E0C0180020FFB507469E
:10CBB000806A81B0144600283DD0002538462030D8
:10CBC000009033E00C20B96A68430E18B088801CCE
:10CBD000FE2802D90C2005B0F0BD22880299401C25
:10CBE000885420881622401C80B2208002990A5462
:10CBF0002088401C80B2208002994118308800F0C3
:10CC0000ECF92188401880B22080B288002A0AD02E
:10CC1000B16800290FD0029BC018FEF78DFA20885A
:10CC2000B188401820806D1C0098EDB2007BA842AE
:10CC3000C8D80020CFE70720CDE700001CB5034986
:10CC400001910091694660DF1CBD00007018002052
:10CC500070B50E460546144614211046FEF785FAB7
:10CC60000120002120802161217326726572002D30
:10CC700000D0A072002070BD10B5FEF705FE10BDFB
:10CC8000F8B50746002903D088070024002801D002
:10CC90000720F8BD0F4D1048A9606A806B600068DE
:10CCA0000126304003D034460020FEF7DFFB0B495D
:10CCB000384610DF070006D0002C02D00020FEF717
:10CCC000F1FB3846F8BD2E70FFF724FD1620FFF764
:10CCD0002BFFF8BDC818002000E100E079CC01006E
:10CCE0000148007870470000C8180020FEB51F4CAE
:10CCF0000025A768606802906846FFF729FA01904E
:10CD0000FFF7CCFA06460198002822D000230098AD
:10CD1000616817E00E680A46864202D9301A086038
:10CD200012E0801BF31800261660D668D169B4465D
:10CD3000002E07D0FE183602360A56606646966008
:10CD4000D56115460029E5D128466160FFF7FCFA58
:10CD500006E02846FFF7F8FA002801D1002E02D09D
:10CD60000298FFF733F90020E070FEBD9C18002008
:10CD700010B50E4B5968002906D002680C68A24213
:10CD800004D8A21A0A60C161586010BD0B4604E0C5
:10CD90000B46C969121B002904D00C689442F7D3D2
:10CDA000A41A0C600260C161D86110BD9C180020FB
:10CDB0007CB50D460646002469460C706846FEF7B1
:10CDC00025FE01A800F00EF900280ED0057046607F
:10CDD000684609490079487068460078FEF734FED5
:10CDE0001420FEF76BFB20467CBD684604240078C7
:10CDF000FEF72AFEF7E70000AC180020F8B51D4D3D
:10CE00006C68002C35D01C4800274068A968401A7F
:10CE10000602360A2068B04218D8361AC7192246C8
:10CE2000107CE46900280FD000201074EB68002B00
:10CE300007D0916950699847002805D0FEF732FD68
:10CE400002E0516990698847002CE3D1297868781D
:10CE5000814206D1401CC0B26870022801D1002076
:10CE6000687004490006800D18310F501420FEF739
:10CE700025FBF8BD9C18002000150140FF221D3243
:10CE8000002383508B8A8A68D25C8B8A5B1C8B82DE
:10CE9000052109024018C26170471FB500226B4688
:10CEA0001A70197281680191827506C868469047A8
:10CEB0001FBDF0B50C46012185B005464902FFF7BC
:10CEC000CEFD032109026F180026002826D0FF217D
:10CED00025312846FFF7BEFD00281FD0FF20253052
:10CEE0002E5081208000B860A07E002801D1012052
:10CEF00068600221684601700920C001291808688D
:10CF000008600390E17D68460172E0680190E67573
:10CF1000267606CC6846083C90472DE0042128463A
:10CF2000FFF79DFD002827D0FF2109312846FFF794
:10CF300091FD002820D021462846FFF7D7FDE07D4F
:10CF4000617E884218D1207E002807D0617EE26889
:10CF5000E0752069E060267666760AE0A07E00280B
:10CF600001D10120686081208000B860E675617E93
:10CF7000E2682046FFF7CDFDFF271D3739462846DA
:10CF8000FFF768FD00280FD0A08AA17D884204D257
:10CF900021462846FFF772FF06E0EE51A17D0029E9
:10CFA00002D02046FFF779FFFF274537394628464C
:10CFB000FFF750FD00280ED0EE51A07E002801D0D2
:10CFC00001202860E07D002805D0E675617EE268DA
:10CFD0002046FFF79EFD05B0F0BD0870000A4870BE
:10CFE0000220704710B509494B788C785A1CD2B290
:10CFF000944200D100220C78944201D1002010BD4F
:10D000000270486818214B43C01810BDAC180020AE
:10D01000FFB583B016460C9D0D9C1F46022200955D
:10D020000194039800F00CF8002807D13B46102229
:10D03000314600950194039800F002F807B0F0BD66
:10D04000FFB583B0074600200C9C8646268805461F
:10D050003AE07868A90042181188684681805188B2
:10D06000C1800022694601A865DF002839D16846E1
:10D0700001780598814226D17046002801D000220F
:10D0800000E002222088891842180D998A4227D888
:10D09000714600290AD1401C80B22080069A04996A
:10D0A00011542088401C2080012086462188069843
:10D0B0000A18694601A865DF002812D16946208850
:10D0C0000978401820806D1C3888A842C1DC704661
:10D0D00000280AD02088801B401E80B2FF2802D979
:10D0E0000C2007B0F0BD069988550020F9E7000034
:10D0F000010000071516171811121314B819002093
:10D10000D8190020041A00201100030015BC0100EA
:10D110001200030015BC01001300030015BC010040
:10D120001400030015BC0100000000509C1A0020F0
:10D130000300000054D101007018002070000000AE
:10D1400018B50100C4D10100E0180020E00900007A
:10D1500028B50100000000000000000000000000F1
:10D1600000000000000000000000000000000000BF
:10D1700000000000000000000000000000000000AF
:10D18000000000000000000000000000000000009F
:10D19000000000000000000000000000000000008F
:10D1A000000000000000000000000000000000007F
:10D1B000000000000000000000000000000000006F
:04D1C0000024F40053
:040000050001B0C185
:00000001FF
